:0200000460009A
:10000000464346420004015600000000010303007D
:1000100000000000000000000000000000000000E0
:1000200000000000000000000000000000000000D0
:1000300000000000000000000000000000000000C0
:1000400000000000000406000000000000000000A6
:100050000000200000000000000000000000000080
:100060000000000000000000000000000000000090
:100070000000000000000000000000000000000080
:10008000EB04180A063204260000000000000000FD
:100090000000000000000000000000000000000060
:1000A0000000000000000000000000000000000050
:1000B0000000000000000000000000000000000040
:1000C0000000000000000000000000000000000030
:1000D0000000000000000000000000000000000020
:1000E0000000000000000000000000000000000010
:1000F0000000000000000000000000000000000000
:1001000000000000000000000000000000000000EF
:1001100000000000000000000000000000000000DF
:1001200000000000000000000000000000000000CF
:1001300000000000000000000000000000000000BF
:1001400000000000000000000000000000000000AF
:10015000000000000000000000000000000000009F
:10016000000000000000000000000000000000008F
:10017000000000000000000000000000000000007F
:10018000000000000000000000000000000000006F
:10019000000000000000000000000000000000005F
:1001A000000000000000000000000000000000004F
:1001B000000000000000000000000000000000003F
:1001C000000100000010000000000000000000001E
:1001D000000004000000000000000000000000001B
:1001E000000000000000000000000000000000000F
:1001F00000000000000000000000000000000000FF
:10100000D10020410020006000000000000000002E
:1010100020100060001000600000000000000000D0
:10102000000000600000200000000000FFFFFFFF44
:1020000000000220F9240060452500604925006099
:10201000412500604125006041250060000000006E
:1020200000000000000000000000000091A300601C
:102030004125006000000000F1A3006055A400608D
:10204000592500605D250060612500606525006000
:10205000692500606D2500607125006075250060B0
:10206000792500607D250060812500608525006060
:10207000892500608D250060912500609525006010
:1020800099250060412500604125006041250060E0
:102090009D250060A1250060A5250060A9250060A0
:1020A000AD250060B1250060B5250060B925006050
:1020B000BD250060C1250060C5250060C925006000
:1020C000CD250060D1250060D5250060D9250060B0
:1020D0003D870060E12500604125006041250060EA
:1020E00041250060412500604125006041250060D8
:1020F00041250060412500604125006041250060C8
:1021000041250060412500604125006041250060B7
:1021100041250060412500604125006041250060A7
:10212000E5250060E9250060ED250060F1250060EF
:10213000F5250060412500604125006041250060D3
:10214000412500604125006041250060498700600D
:102150004F870060412500604125006041250060F7
:102160004125006041250060412500604125006057
:102170004125006041250060412500604125006047
:102180004125006041250060412500604125006037
:102190004125006041250060412500604125006027
:1021A0004125006041250060F9250060FD250060A3
:1021B0004125006041250060412500604125006007
:1021C00041250060412500604125006041250060F7
:1021D00041250060412500604125006041250060E7
:1021E0004125006041250060412500600126006016
:1021F0000526006041250060092600600D2600606C
:102200000B5B0060055B0060112600601526006016
:1022100041250060412500604125006041250060A6
:102220004125006041250060412500604125006096
:102230004125006041250060412500604125006086
:102240004125006041250060412500604125006076
:102250004125006041250060412500604125006066
:102260004125006041250060412500604125006056
:102270004125006041250060412500604125006046
:102280004125006041250060412500604125006036
:102290004125006041250060412500604125006026
:1022A000192600601D2600604387006041250060FC
:1022B0002526006041250060412500604125006021
:1022C00041250060412500604125006041250060F6
:1022D00041250060412500604125006041250060E6
:1022E00041250060412500604125006041250060D6
:1022F00041250060412500604125006041250060C6
:1023000041250060412500604125006041250060B5
:1023100041250060412500604125006041250060A5
:102320004125006041250060412500604125006095
:102330004125006041250060412500604125006085
:102340004125006041250060412500604125006075
:102350004125006041250060412500604125006065
:102360004125006041250060412500604125006055
:102370004125006041250060412500604125006045
:102380004125006041250060412500604125006035
:102390004125006041250060412500604125006025
:1023A0004125006041250060412500604125006015
:1023B0004125006041250060412500604125006005
:1023C00041250060412500604125006041250060F5
:1023D00041250060412500604125006041250060E5
:1023E00041250060412500604125006041250060D5
:1023F000412500604125006041250060FFFFFFFF8F
:102400000348044B834202D0034B03B11847704783
:1024100060290020602900200000000005480649CE
:102420000B1AD90F01EBA301491002D0034B03B1E2
:102430001847704760290020602900200000000034
:1024400010B5064C237843B9FFF7DAFF044B13B1FC
:102450000448AFF300800123237010BD003000203A
:102460000000000034BE006008B5044B1BB10449F5
:102470000448AFF30080BDE80840CFE7000000004B
:102480000430002034BE0060A3F5803A704700BFDE
:10249000154B002B08BF114B9D46FFF7F5FF0021A0
:1024A0008B460F461148124A121A00F007FC0C4BDB
:1024B000002B00D098470B4B002B00D098470020F2
:1024C000002104000D000B4800F0D4FA00F028FBB6
:1024D0002000290004F00CFD00F0D2FA00000800F2
:1024E000000000000000000000000220003000207A
:1024F000689E0020A92A006072B60A480A49016055
:102500000A6882F30888094880470949094A0A4B42
:102510009A42BEBF51F8040B42F8040BF8E762B6CA
:102520000648804708ED00E000200060794E00601A
:102530005CBE006000000020602900209124006043
:10254000FFF7FEBF38480047384800473848004783
:10255000384800473848004738480047384800475F
:10256000384800473848004738480047384800474F
:10257000384800473848004738480047384800473F
:10258000384800473848004738480047384800472F
:10259000384800473848004738480047384800471F
:1025A000384800473848004738480047384800470F
:1025B00038480047384800473848004738480047FF
:1025C00038480047384800473848004738480047EF
:1025D00038480047384800473848004738480047DF
:1025E00038480047384800473848004738480047CF
:1025F00038480047384800473848004738480047BF
:1026000038480047384800473848004738480047AE
:10261000384800473848004738480047384800479E
:102620003848004738480047452500604925006084
:1026300091A30060F1A3006055A4006041250060F3
:102640004125006041250060412500604125006072
:102650004125006041250060412500604125006062
:102660004125006041250060412500604125006052
:102670004125006041250060412500604125006042
:10268000055A0060255A0060455A0060655A00608E
:10269000855A0060A55A0060C55A0060E55A00607E
:1026A0004125006041250060412500604125006012
:1026B0004125006041250060412500604125006002
:1026C00041250060412500604125006041250060F2
:1026D00041250060412500604125006041250060E2
:1026E00041250060412500604125006041250060D2
:1026F00041250060412500604125006041250060C2
:1027000041250060412500604125006053B94AB968
:10271000002908BF00281CBF4FF0FF314FF0FF30E9
:1027200000F082B9ADF1080C6DE904CE00F01AF8A2
:10273000DDF804E0DDE9022304B07047430803F04C
:102740005533C01A830803F0333300F03330184494
:1027500000EB101000F00F3000EB002000EB004009
:10276000000E70472DE9F047089D04468C46002B6B
:1027700040F083808A42174647D9B2FA82F242B1CA
:10278000C2F1200024FA00F09140974040EA010C89
:1027900094404FEA1748230CBCFBF8F61FFA87FE5B
:1027A00008FB16C143EA014306FB0EF1994209D921
:1027B000FB1806F1FF3080F01981994240F2168132
:1027C000023E3B445B1AA4B2B3FBF8F008FB1033A3
:1027D00044EA034400FB0EFEA64509D93C1900F16A
:1027E000FF3380F00581A64540F2028102383C4467
:1027F00040EA0640A4EB0E0400261DB1D44000239D
:10280000C5E900433146BDE8F08702B9FFDEB2FA00
:1028100082F2002A50D1CB1B4FEA174E1FFA87F8DD
:102820000126B3FBFEFC210C0EFB1C3341EA0341E5
:1028300008FB0CF38B4207D979180CF1FF3002D258
:102840008B4200F2E9808446C91AA3B2B1FBFEF0C4
:102850000EFB101143EA014408FB00F8A04507D91C
:102860003C1900F1FF3302D2A04500F2D98018468E
:10287000A4EB080440EA0C40BFE78B4209D9002DC5
:1028800000F0B1800026C5E9000130463146BDE8C0
:10289000F087B3FA83F6002E4AD18B4202D38242EC
:1028A00000F2B880841A61EB030101208C46002DF0
:1028B000A8D0C5E9004CA5E7C2F1200320FA03F631
:1028C000974001FA02F04FEA174ED9403043030C0B
:1028D000B1FBFEF61FFA87F80EFB161143EA01431F
:1028E00006FB08F1994204FA02F409D9FB1806F133
:1028F000FF3C80F08D80994240F28A80023E3B444A
:102900005B1A81B2B3FBFEF00EFB103341EA0341C8
:1029100000FB08F38B4207D9791800F1FF3C73D212
:102920008B4271D902383944CB1A40EA064678E71F
:10293000C6F1200C03FA06F422FA0CF31C4320FA29
:102940000CF701FA06F34FEA144E21FA0CF11F437B
:102950003B0CB1FBFEF91FFA84F80EFB191143EA98
:10296000014109FB08FA8A4502FA06F200FA06F369
:1029700008D9611809F1FF3048D28A4546D9A9F132
:1029800002092144A1EB0A01BFB2B1FBFEF00EFB2C
:10299000101147EA014700FB08F8B84507D9E719C5
:1029A00000F1FF312ED2B8452CD90238274440EA35
:1029B0000940A7EB0807A0FB02894F45C6464946D8
:1029C0001AD317D05DB1B3EB0E0267EB010707FA1C
:1029D0000CFCF2404CEA0202F740C5E90027002651
:1029E0003146BDE8F0872E4628460BE70646E9E665
:1029F0001846FDE64345E5D2B8EB020E69EB04014B
:102A00000138DFE70846D2E760468DE78146B9E73F
:102A1000664675E730464AE7ACF1020C394413E7E5
:102A200002383C4424E700BF704700BF00B50A4CA1
:102A30002668054685B01C46F06852B1074B0091E8
:102A4000CDE9013206492B46224600F055F800F048
:102A500063FF044B1A46F2E700000020B8BD006097
:102A6000C8BD0060C4BD006008B513460022FFF772
:102A7000DDFF00BF002301461A46184600F0AEBE37
:102A800008B5074B044613B1002100F0F7FE054BD3
:102A90001868836A03B19847204601F019FE00BF09
:102AA0007D3800605CB1006038B50A4C0A4D641B8B
:102AB000A4100AD004F18043013B05EB8305013CDF
:102AC00055F804399847002CF9D1BDE8384009F091
:102AD000B7B900BF5CBE006058BE00600CB400B562
:102AE00083B004AB53F8042B019300F035FA03B024
:102AF0005DF804EB02B070470EB410B583B005ABBF
:102B0000064C53F8042B01930146206800F024FA88
:102B100003B0BDE8104003B0704700BF00000020C4
:102B200070B50D4E0D4D761BB61006D00024013445
:102B300055F8043B9847A642F9D1094E094D761B3A
:102B400009F078F9B61006D00024013455F8043B9A
:102B50009847A642F9D170BD54BE006054BE0060D3
:102B600058BE006054BE0060024B0146186800F079
:102B70004BB900BF00000020024B0146186800F06E
:102B8000EDB800BF00000020844641EA000313F0C6
:102B900003036DD1403A41D351F8043B40F8043B64
:102BA00051F8043B40F8043B51F8043B40F8043B27
:102BB00051F8043B40F8043B51F8043B40F8043B17
:102BC00051F8043B40F8043B51F8043B40F8043B07
:102BD00051F8043B40F8043B51F8043B40F8043BF7
:102BE00051F8043B40F8043B51F8043B40F8043BE7
:102BF00051F8043B40F8043B51F8043B40F8043BD7
:102C000051F8043B40F8043B51F8043B40F8043BC6
:102C100051F8043B40F8043B403ABDD2303211D366
:102C200051F8043B40F8043B51F8043B40F8043BA6
:102C300051F8043B40F8043B51F8043B40F8043B96
:102C4000103AEDD20C3205D351F8043B40F8043B66
:102C5000043AF9D2043208D0D2071CBF11F8013B64
:102C600000F8013B01D30B8803806046704700BF2A
:102C7000082A13D38B078DD010F003038AD0C3F139
:102C80000403D21ADB071CBF11F8013B00F8013B1B
:102C900080D331F8023B20F8023B7BE7043AD9D3DA
:102CA000013A11F8013B00F8013BF9D20B780370AF
:102CB0004B7843708B78837060467047F0B486071A
:102CC00046D0541E002A3CD0CAB2034602E014F19A
:102CD000FF3436D303F8012B9D07F8D1032C29D9F3
:102CE000CDB245EA05250F2C45EA054533D9A4F1B7
:102CF0001006360903F1200707EB061703F110024F
:102D000042E9045542E902551032BA42F8D1721C28
:102D100014F00C0F03EB021204F00F0613D0331F54
:102D200023F003030433134442F8045B9342FBD1C2
:102D300006F003042CB1C9B21C4403F8011B9C42E9
:102D4000FBD1F0BC704734461346002CF3D1F8E7B2
:102D500014460346C2E71A462646E0E700293CD05F
:102D600038B551F8043C0C1F002BB8BFE4180546D9
:102D700001F0BEFA234B1A682AB1A2420DD921688C
:102D80006018824223D0626028461C60BDE838404B
:102D900001F0B0BAA34203D81A465368002BF9D108
:102DA00011685018A04219D024D8216860188342B5
:102DB00006D0636054602846BDE8384001F09ABAF6
:102DC000D3E900030144636021605460F3E7D2E972
:102DD0000002014462602160D6E770472068014428
:102DE000501883421160E6D1D3E9000301445360D7
:102DF0001160E0E70C232B602846BDE8384001F065
:102E000079BA00BF1C300020F8B5CD1C25F00305B1
:102E100008350C2D38BF0C25002D064633DBA942A2
:102E200031D82A4F01F064FA3A6852B113685B1B3B
:102E300004D43FE023685B1B29D522465468002C4C
:102E4000F8D1796800293BD02946304600F0D4FB00
:102E5000431C28D0C41C24F00304A04205D0211A2E
:102E6000304600F0C9FB01301DD02560304601F02E
:102E700041FA04F10B0020F00700231DC21A01D013
:102E80001B1AA350F8BD0C2232600020F8BD0B2B9A
:102E900005D8A242636811D05360E7E71446236067
:102EA0001C442560E2E70C233046336001F022FA2F
:102EB0000020F8BD0B2BF1D8536814463B60D5E7D2
:102EC000304600F099FB7860BEE700BF1C30002060
:102ED0009368013B002B936011DA10B49469A3420C
:102EE00009DB0A2907D01368581C106019700846BE
:102EF0005DF8044B70475DF8044B00F08FBB13681E
:102F0000581C106019700846704700BF9BB1F8B597
:102F100013440F4606465D1E541E01E0AC4208D025
:102F20003A4614F8011F3046FFF7D2FF431CF5D193
:102F3000F8BD0020F8BD0020704700BF936810B5B1
:102F4000144613B95360184610BD00F0CDFE00239F
:102F5000C4E9013310BD00BF2DE9F04F9FB08B468F
:102F600090461C46039018B18369002B00F0B7808F
:102F7000A24B9B4500F0B980A14B9B4500F0C78058
:102F8000A04B9B4504BF039BD3F80CB0BBF80C309F
:102F9000180740F1B280DBF81030002B00F0AD8054
:102FA00030238DF8323098F800300594002120222B
:102FB0000B918DF83120944E0127002B00F0878073
:102FC000252B00F01581454603E0252B00F0A3805A
:102FD00025466B786C1C002BF7D1B4EB080A76D031
:102FE0004246534659460398FFF790FF01306ED092
:102FF0000B9B6A7853440B93002A68D000234FF050
:10300000FF3201340693CDE908338DF85B301C9311
:10301000079205E0069A07FA03F313432C4606933A
:103020002546052215F8011B304601F0A9F8AA46ED
:10303000831B0028EED1069BD90644BF20228DF8C1
:103040005B2021781A0744BF2B228DF85B202A29A8
:1030500066D1059A1168043200290592C0F29D805C
:1030600009916178A51C2E2973D0684C0322204653
:1030700001F086F8002800F08680001B069B4024A3
:1030800004FA00F00343069305F10108297860482B
:103090008DF83010062201F073F8002800F08380CC
:1030A0005C4B002B72D005AB00935A465A4B0398E9
:1030B00006A9AFF300808146B9F1FF3F07D00B9B13
:1030C0004B440B9398F80030002B7FF479AFBBF89A
:1030D0000C305B0618D40B981FB0BDE8F08F00F0E1
:1030E000E3FD464B9B457FF447AF039BD3F804B009
:1030F000BBF80C3018073FF54EAF5946039800F067
:10310000EDFA00283FF44CAF4FF0FF30E4E7039BAB
:10311000D3F808B03AE7B4EB080A3FF46FAF5FE7C3
:10312000A1F13002092A88BFA2469CD8099B01E080
:103130002C460135297803EB830302EB4303A1F10D
:103140003002092AAA46F3D92E2904F1020509936F
:103150008BD19AF801102A292FD1059B9AF80210D9
:103160001A6807920433002A05930AF103050AF14D
:10317000020338DB254C032220469A4601F000F872
:1031800000287FF47AAFA84655467FE7059B0733B2
:1031900023F007030833059391E7494243F0020304
:1031A000099106935DE705AB00935A461A4B0398C5
:1031B00006A900F0D5F881467EE7A1F13002002390
:1031C000092A079301D915E05546697803EB830373
:1031D00002EB4303A1F13002092A05F1010AF3D9F8
:1031E0000235079341E74FF0FF329A4607923CE7DA
:1031F000444603E7AA46013537E700BFA0B10060A7
:1032000080B1006060B10060F8BD006000BE006089
:1032100004BE0060000000000D2F006010B4044CDC
:1032200013460A46014620685DF8044BFFF794BE3A
:10323000000000202DE9F0470C4691460A69896894
:10324000DDF820808A42B8BF0A46C9F8002094F809
:10325000431006461F4611B10132C9F80020236809
:1032600099065CD5D9F800200232C9F800202368FD
:1032700013F0060F19461DD1E1688A1A002AD8BF3B
:10328000194617DD04F1190A002505E0E368D9F8AD
:1032900000209B1AAB420CDD0123524639463046D2
:1032A000C047013005F10105F0D14FF0FF30BDE816
:1032B000F087216894F84330003318BF01238A0651
:1032C0000AD5E1185A1C302081F84300224494F8B2
:1032D000451082F84310023304F143023946304668
:1032E000C0470130E1D02368A268216903F00603DA
:1032F000042B1DD08A4226DD4FF00009521A91445A
:103300001A34002501E04D451DDA012322463946D5
:103310003046C047013005F10105F4D1C5E713F08F
:10332000060F13D094F84330003318BF0123D3E7BE
:10333000D9F80000E3688A42A3EB000323EAE379AB
:10334000DCDC002BDCDC0020BDE8F087E168D9F88C
:1033500000208A1A002AD8BF194693DCAAE700BFCA
:103360002DE9F0430C46097E85B06E2906461746C6
:103370000C98984604F1430E6DD039D9732900F0AA
:10338000F68044D9752900F00481782940F0118134
:1033900078232268DFF858C284F8453001681506A2
:1033A00051F8043B016040F1A180D10744BF42F0D5
:1033B00020022260002B00F093801022002184F86C
:1033C00043106068A0600028C0F2C880216821F026
:1033D00004012160002B40F0A380002840F0C08051
:1033E0007546082A00F0AC80AEEB0503236141E08E
:1033F000632900F0E5801AD8002938D0582940F018
:10340000D88084F845102268DFF8E8C1C6E76F2944
:1034100000F0BF80702940F0CC802268DFF8D0C176
:1034200042F020027823226084F84530B6E7642910
:1034300002D0692940F0BD8022680368110603F1BB
:10344000040557D5196805600B46002959DBDFF8DC
:10345000A4C10A22B5E70368226861691D1D0560E1
:1034600015061B6802D4500600F1BD8019600023C8
:1034700075462361CDF800803B4603AA21463046BD
:10348000FFF7D8FE013020D02A462369394630465E
:10349000C047013019D022680398E368920719D514
:1034A0001A1A002A16DD04F11909002504E0E36860
:1034B00003981A1AAA420DDD01234A4639463046BE
:1034C000C047013005F10105F1D14FF0FF3005B0E3
:1034D000BDE8F0839842B8BF184605B0BDE8F08358
:1034E000226822F020022260102267E7500648BFBF
:1034F0009BB25AE75106A5D5B3F9003005601946CD
:10350000A3E76168A1602D200029C3F1000384F8BE
:10351000430002DB22F004022260DFF8D8C00A2256
:10352000754600E00B46B3FBF2F102FB113093420B
:103530001CF8000005F8010DF4D2082A7FF454AFFE
:103540002368DB077FF550AF626823699A423FF733
:103550004BAF302305F8013C013D45E7002BDFD19F
:103560009CF8003084F8423004F1420539E70368E2
:103570006268191D01601D680021284600F000FEE8
:10358000002832D0401B60602061002384F8433063
:1035900070E72268036812F0800F03F104051AD067
:1035A0001B6805606F290CBF08220A22DFF844C09F
:1035B00004E7012384F84210236104F14205E4E7A3
:1035C00003681A68191D0123016004F1420584F89B
:1035D00042202361D9E712F0400F0DBF1B68056040
:1035E0001B880560DEE7198041E76068CCE700BF13
:1035F00020BE00600CBE006038B5074C00230546B5
:103600000846236001F056F8431C00D038BD2368FB
:10361000002BFBD02B6038BD649E0020F8B50D4612
:103620001446064608B1836943B3254B9C422AD011
:10363000244B9C4229D0244B9C4208BFF468A389A8
:10364000A269A2601A0722D5236903B322686169BF
:10365000D31AEDB299422F4629DD0133A168501CDF
:103660000139A1602060157062699A4216D0A38961
:10367000DB0701D50A2D11D03846F8BD00F014FB48
:103680000F4B9C42D4D17468D9E7B468D7E7214680
:10369000304600F023F838B92369D7E72146304691
:1036A00000F0D8F90028E7D04FF0FF37E4E72146D3
:1036B000304600F0CFF90028F6D122680123CDE78B
:1036C000A0B1006080B1006060B10060024B0A46AA
:1036D00001461868FFF7A2BF000000203B4B70B501
:1036E0001D6806460C460DB1AB69DBB1384B9C42F8
:1036F0001ED0384B9C424AD0374B9C4208BFEC68E6
:10370000B4F90C2093B2190718D5206908B313F047
:1037100001022CD0636900225B42A361A26060B306
:10372000002070BD284600F0BFFA294B9C42E0D132
:103730006C68B4F90C2093B21907E6D4DD063CD5C9
:10374000580726D4206942F00803A3819BB20028C1
:10375000DDD103F42072B2F5007FD8D03046214687
:1037600000F0C4FCA389206913F00102D2D19907AB
:1037700058BF6269A2600028D2D1B4F90C301A0691
:10378000CFD543F04003A3814FF0FF3070BDAC684C
:10379000B6E7616B51B104F14403994204D030465D
:1037A000FFF7DCFAB4F90C200023636300232069DF
:1037B000636022F024022060C5E742F04002092342
:1037C00033604FF0FF30A28170BD00BF00000020C9
:1037D000A0B1006080B1006060B100602DE9F843E5
:1037E000224C25680DB36C681F2C3BDC9846914633
:1037F0000F46064688B1D5F8880028B3D0F80031C6
:1038000040F824900122A24000EB84011343022ED1
:10381000C0F80031C1F8808010D0A31C01346C6066
:1038200045F823700020BDE8F883114E114D256046
:10383000002ED8D03468C5F88840D4E7D0F80431D9
:103840001A43C0F80421E8E70B4B5BB14FF48470D6
:10385000FFF78AF930B100236C68C0E94033C5F83E
:103860008800CDE74FF0FF30DDE700BFB03000202B
:103870000000000024300020692B00602DE9F04F8B
:10388000DFF8908083B0D8F8005001900F464FF0D9
:10389000010A8DB16C68D5F88860013C0CD405F143
:1038A000080B67B12EB106F1800353F82430BB42F8
:1038B00005D014F1FF34F4D203B0BDE8F08F6B688B
:1038C0005BF82420013BA34216BF00236C604BF839
:1038D0002430002AEDD0D5F80490B6B1D6F8001106
:1038E0000AFA04F30B4210D0D6F8040156F824105B
:1038F00003420CD1019890476B68D8F800204B45E3
:1039000001D1AA42D5D01546C3E79047F4E708464F
:103910009047F1E7B030002008B5062000F098FD90
:10392000012000F0D5FE00BF8B891A072DE9F04178
:103930000C46804641D44A68002A59DDE66A002ECA
:1039400053D00022D8F80050216AC8F8002013F4A0
:10395000805251D101234046B047431C5FD0A38918
:10396000E66A216A5F0705D56268636B801A0BB14E
:10397000236CC01A024600234046B047461C45D17E
:10398000D8F80030B4F90C20002B55D01D2B01D0F5
:10399000162B5AD123690022C4E90032616BC8F8A2
:1039A000005011B304F14403994202D04046FFF79E
:1039B000D5F900206063BDE8F0810E69AEB10D68F5
:1039C0000E6099070CBF63690023AD1BA3600AE07A
:1039D0002B463246A76A216A4046B8470028A5EB25
:1039E000000506440ADD002DF2DC0020BDE8F08170
:1039F0000A6C002AA2DCF8E7606DB3E7A38943F004
:103A00004003A3814FF0FF30BDE8F0812269A38914
:103A1000226000226260DA04C0D56065BEE7D8F893
:103A20000030002B9BD01D2B0CD0162B0AD0A38965
:103A300043F04003A381D9E72169C4E90013D3040B
:103A4000ACD5EAE7C8F80050CFE742F04002A281C7
:103A5000CCE700BF0B6923B310B5044682B008B1B0
:103A60008369BBB1104B994212D0104B994216D0CA
:103A70000F4B994208BFE168B1F90C302BB12046D9
:103A800002B0BDE81040FFF74FBF002002B010BDEC
:103A90006168F1E7019100F007F90199E2E7A16897
:103AA000EAE70020704700BFA0B1006080B100606D
:103AB00060B1006020B1054B01461868FFF7CABF2E
:103AC000034B0449186800F0B9BA00BF0000002099
:103AD0005CB10060553A006000207047014900F079
:103AE000ADBA00BF553A00600020704770B54A1E5D
:103AF000682505FB02F50E4605F17401FFF784F910
:103B0000044640B100210C30666005F16802216076
:103B1000A060FFF7D3F8204670BD00BF1E4B70B504
:103B20001D68AB69064643B34835D5E90134013B0E
:103B300005D51EE0013B5A1C04F1680419D0B4F904
:103B40000C20002AF6D10025144B6566C4E9005507
:103B5000A560C4E90455A5612946E360082204F183
:103B60005C00FFF7ABF8C4E90D55C4E912552046D7
:103B700070BD2C682CB12546D7E7284600F010F818
:103B8000D2E704213046FFF7B1FF04462860002841
:103B9000F1D10C233360EAE75CB100600100FFFF64
:103BA0002DE9F84F334B34491A68816290424FF047
:103BB0000003C0E91233036504BF01238361054696
:103BC000FFF7ACFF68602846FFF7A8FFA86028460B
:103BD000FFF7A4FF6E68E86000240423F3607466B6
:103BE000C6E90044B460C6E90444B461214606F164
:103BF0005C000822FFF762F8DFF888B0AF68DFF8F2
:103C000088A0DFF88890DFF888801C4BC6F83080E9
:103C1000C6E9086BC6E90AA92146FB6008227C6652
:103C2000C7E90044BC60C7E90444BC6107F15C001B
:103C3000FFF744F8EE68124BC7F83080C7E9087BFD
:103C4000C7E90AA92146F3607466C6E90044B46076
:103C5000C6E90444B46106F15C000822FFF72EF8BF
:103C60000123C6E9086BC6E90AA9C6F83080AB6132
:103C7000BDE8F88F5CB10060DD3A0060090001002A
:103C800012000200C1440060E94400602945006060
:103C900049450060024B0349186800F0CFB900BFE6
:103CA0005CB10060553A0060836903B978E77047FA
:103CB000704700BF704700BF704700BF704700BF2C
:103CC000024B0349186800F093B900BF00000020C0
:103CD000D93A0060024B0349186800F089B900BF67
:103CE00000000020E93A00609368002B00F0028198
:103CF0002DE9F04FB1F90C309BB20C46190783B097
:103D00008246904635D522699AB313F00202D8F85C
:103D100000603DD00027D4F828B0D4F820C0DFF8E8
:103D2000CC923D464D452B463A4628BF4B46614610
:103D30005046D5B1D847002840F3D280D8F8083093
:103D40001B1A07442D1AC8F80830002B00F0B78062
:103D5000D4F820C0D4F828B04D452B463A4628BFA9
:103D60004B4661465046002DE4D1D6E90075083631
:103D7000D8E721465046FFF7B1FC002840F03081DB
:103D8000B4F90C30D8F800609BB213F00202C1D134
:103D900013F0010940F0B080A76820684D46002D5F
:103DA00054D09A0540F1BC80AF42BB4600F2E78098
:103DB00013F4906F2FD0D4E9041707EB4707A0EB5B
:103DC000010B07EBD777681C7F105844B8423A467E
:103DD00084BF07463A465B0540F1E98011465046EC
:103DE000FFF712F8002800F0F5805A46216901908B
:103DF000FEF7CAFEA289019B22F4906242F0800283
:103E0000A281A7EB0B0203EB0B006761236120602B
:103E1000A2602F46AB465A46494600F001FAA26816
:103E20002368D21B5B442F46A26023600025D8F88C
:103E30000830DB1BB944C8F80830002B3FD0B4F978
:103E40000C30A76820689BB2002DAAD1D6E9009556
:103E50000836A4E70BF1080353E902679B460833D1
:103E6000002FF9D03A460A21304600F089F900289F
:103E700053D00130A0EB06094B46D4E90412206868
:103E8000BB4228BF3B46884203D9A5681544AB42D4
:103E900019DC9A427DDC1346A56A216A32465046F7
:103EA000A847051E1CDDB9EB05096BD00120D8F829
:103EB00008305B1B2E447F1BC8F8083013BB002062
:103EC00003B0BDE8F08F31462A4600F0A9F9236817
:103ED0002B44236021465046FFF7BCFD0028E2D06A
:103EE000B4F90C3043F040034FF0FF30A38103B02E
:103EF000BDE8F08F002070473346914610461746C4
:103F00004E469B46002FA5D00028B5D13A460A213F
:103F1000304600F035F90028ABD17B1C9946ACE760
:103F20002369834215D36169A94212D82E4BA76A2F
:103F30009D4294BF2B466FF000434A4693FBF1F33A
:103F4000504601FB03F3216AB847071EC8DDED1B8D
:103F50006DE7AF4228BF2F463A46494600F060F968
:103F6000A3682268DB1B3A44A3602260002BEED1D9
:103F700021465046FFF76EFD0028E8D0B0E72F46F7
:103F8000AB4648E721465046FFF764FD00288ED037
:103F9000A6E71A463146019300F042F9019BA16859
:103FA0002268C91A1A44A16022601D467BE7504668
:103FB00000F0A2F9034600287FF423AF21695046A0
:103FC000FEF7CCFEB4F90C300C2223F08003CAF8C3
:103FD000002087E70C23CAF80030B4F90C3081E7E1
:103FE0004FF0FF306CE700BFFEFFFF7F00FCFF7F5C
:103FF0002DE9F04110F148071BD088460026D7E98B
:104000000154013D0FD4A389012B05F1FF3506D9D9
:10401000B4F90E300133204601D0C04706436B1C73
:1040200004F16804EFD13F68002FE8D13046BDE8C5
:10403000F0813E463046BDE8F08100BF2DE9F843EF
:1040400010F148071FD0884606464FF00009D7E90F
:104050000154013D11D4A389012B05F1FF3508D985
:10406000B4F90E3001332146304602D0C04749EA48
:1040700000096B1C04F16804EDD13F68002FE6D104
:104080004846BDE8F883B9464846BDE8F88300BF16
:1040900070B50C46B1F90E10002996B016461D46B3
:1040A00013DB6A4600F07CFA00280EDB019A02F46A
:1040B0007042A2F50052B2FA82F252094FF48063C4
:1040C00000202A60336016B070BDA38900221B0651
:1040D0002A6004D540230020336016B070BD4FF431
:1040E00080630020336016B070BD00BF8A899207DC
:1040F0000B4606D501F1470201211A60C3E90421EC
:10410000704770B582B001AB6A460C460646FFF7B1
:10411000BFFF009905463046FEF776FEB4F90C3035
:1041200070B11649B162019A0099206043F0800392
:10413000A381C4E904018AB92B43A38102B070BDF5
:104140009A05FBD423F0030304F1470243F0020372
:104150000121A3812260C4E90421EFE73046B4F9CC
:104160000E1000F031FA10B9B4F90C30E4E7A3896D
:1041700023F0030343F001031BB2DDE7DD3A0060E7
:1041800001F0FF01102A2BDB10F0070F08D010F808
:10419000013B013A8B422DD010F0070F42B3F6D10C
:1041A000F0B441EA012141EA014122F007047FF025
:1041B00000070023F0E80256083C85EA010586EA7C
:1041C000010685FA47F5A3FA87F586FA47F6A5FAB8
:1041D00087F68EB9EED1F0BC01F0FF0102F00702C4
:1041E00032B110F8013B013A83EA010313B1F8D16F
:1041F0000020704701387047002D06BF3546033850
:10420000073815F0010F07D1013015F4807F02BF88
:10421000013015F4C03F0130F0BC0138704700BFD9
:104220008842F0B40DD98B1883420AD9841832B170
:10423000224613F8014D02F8014D9942F9D1F0BC24
:1042400070470F2A0ED80346541E002AF7D00134B7
:104250000C44013B11F8012B03F8012FA142F9D1C5
:10426000F0BC704740EA01039B073BD1A2F1100765
:104270003F0901F1200606EB071601F1100300F1DA
:10428000100453F8105C44F8105C53F80C5C44F8CC
:104290000C5C53F8085C44F8085C53F8045C44F880
:1042A000045C1033B34204F11004EAD17B1C1B01FF
:1042B00012F00C0F194402F00F05034415D0043D11
:1042C000AD0803EB850C1C1F0E4656F8047B44F822
:1042D000047F6445F9D10135AD002B44294402F037
:1042E0000302B1E7541E0346B1E72A46ACE700BF1C
:1042F000704700BF704700BF09B3F8B51446CAB194
:1043000006460D4600F088F9A04202D32F463846F3
:10431000F8BD21463046FEF777FD07460028F6D067
:1043200022462946FEF730FC30462946FEF716FDA8
:104330003846F8BD2746FEF711FD3846F8BD114650
:10434000FEF762BD10B580210446FEF75DFD606496
:1043500040B1031F00227C3043F8042F8342FBD17D
:10436000002010BD4FF0FF3010BD00BF436C0BB1FB
:1043700000207047E6E700BF1F2970B5054608D842
:10438000436C16460C464BB153F8240043F82460A6
:1043900070BD162202604FF0FF3070BDFFF7D2FFF4
:1043A00008B96B6CF0E74FF0FF3070BD1F2938B5CE
:1043B00021D8426C05460C466AB152F8213053B1FF
:1043C000012B16D0591C10D00025204642F824504D
:1043D0009847284638BD284600F070F82246014626
:1043E0002846BDE8384000F055B816230360012088
:1043F00038BD002038BD162303604FF0FF3038BDB4
:104400001F2921D838B5436C05460C4683B153F8B3
:10441000242003EB84034AB1511C10D0012A0CD094
:10442000002520461D609047284638BD012038BD34
:10443000FFF788FF28B96B6CE9E7032038BD02203D
:1044400038BD4FF0FF3038BD4FF0FF30704700BF30
:10445000024B01461868FFF7A9BF00BF000000200B
:10446000024B0A4601461868FFF786BF000000208D
:10447000034B1868436C0BB10020704762E700BF24
:1044800000000020024B01461868FFF7B9BF00BFCB
:104490000000002038B50B46074C0546114618466B
:1044A0000023236000F0F6F8431C00D038BD2368D9
:1044B000002BFBD02B6038BD649E002000F0DAB8E2
:1044C00010B50C46B1F90E1000F0AEF8002803DB71
:1044D000636D0344636510BDA38923F48053A381F6
:1044E00010BD00BF002070472DE9F0411646B1F91C
:1044F0000C201F46D3050C460546B1F90E1009D411
:1045000022F48052A2813B4632462846BDE8F04163
:1045100000F01EB80022022300F068F8B4F90C2065
:10452000B4F90E10ECE700BF10B50C46B1F90E104F
:1045300000F05CF8A389421C0EBF23F4805343F4BF
:1045400080536065A38110BDB1F90E1000F016B85C
:1045500070B50D46084C114606461A4628460023FB
:10456000236001F0A1FB431C00D070BD2368002B29
:10457000FBD0336070BD00BF649E002038B5074C8F
:10458000002305460846236000F064F8431C00D071
:1045900038BD2368002BFBD02B6038BD649E002003
:1045A00038B50B46074C05461146184600232360D4
:1045B00000F058F8431C00D038BD2368002BFBD016
:1045C0002B6038BD649E002038B5074C002305469B
:1045D0000846236000F056F8431C00D038BD23681D
:1045E000002BFBD02B6038BD649E002070B50D46BB
:1045F000084C114606461A4628460023236000F060
:1046000051F8431C00D070BD2368002BFBD03360F1
:1046100070BD00BF649E002051F8043C181F002BA1
:10462000BCBF0B58C018704770B50D46084C1146FA
:1046300006461A4628460023236001F039FB431C36
:1046400000D070BD2368002BFBD0336070BD00BF6D
:10465000649E0020024B58221A604FF0FF307047D2
:10466000649E0020024B58221A604FF0FF307047C2
:10467000649E0020024B58221A604FF0FF307047B2
:10468000649E0020024B58221A600020704700BF31
:10469000649E0020024B58221A604FF0FF30704792
:1046A000649E0020024B58221A604FF0FF30704782
:1046B000649E0020044A05491368002B08BF0B467E
:1046C0001844106018467047B4300020689E0020DF
:1046D000FEE700BF194B70B553F8305002EB4104B0
:1046E000174B02F1200003EB841400EB4100E66855
:1046F00003EB40106FF38616E660A060BFF34F8FA8
:104700000020104C1E182030B0F5C06FC4F8706245
:10471000F8D1BFF34F8FBFF36F8F19B9D5F8AC3114
:10472000D807FBD4002A14BF102300231944012307
:1047300003FA01F1C5F8B01170BD00BFC0B100604F
:104740000038002000ED00E070B516460D4621F05F
:10475000030301F01C0206F11F0104460A44BFF3E3
:104760004F8F19481A44C0F870322033D11A0029EB
:10477000F9DCBFF34F8FBFF36F8F1C220021201D88
:10478000FEF79CFA0123A6832360636843F080034D
:104790006360636866F31E436360637943F080037C
:1047A00063717DB123460949183443F8085F3544E5
:1047B00053F8042B0A4002F58052954202D99C42DC
:1047C0001A60F5D170BD00BF00ED00E000F0FFFF02
:1047D00002EB41032DE9F7432033294C88464D0075
:1047E00004EB43130646596848060AD4596809077A
:1047F00004D459688B06C1F3401911D54FF0010953
:1048000001E04FF002091F4B002A53F8360014BF95
:104810001023002308EB030101238B40C0F8B431BF
:10482000154405F1200304EB4313596804EB4513C9
:1048300004EB8515C1F30E41B3F81C74286B7F1A85
:10484000BFB2B8B1012A394610D16FF07F0405F02C
:10485000C8FE44EA080401233A4630460093E1B218
:104860004B4606F012F803B0BDE8F083002405F0D3
:10487000AFFEEEE7002A14BF6FF07F040024E8E7E4
:1048800000380020C0B1006038B54FF4C062044663
:1048900000212148FEF712FA204B53F83430D3F8A8
:1048A000402142F00202C3F84021D3F8402112F027
:1048B0000202FAD10221C3F8A8110921C3F8A411F8
:1048C0004FF08071C3F884111349BFF34F8F144C1C
:1048D00008468D182032B2F5C06FC4F87052F8D176
:1048E000BFF34F8FBFF36F8FC3F85801D3F8442144
:1048F000C3F8442140F20712C3F84821D3F84021FD
:1049000022F47F02C3F84021D3F8402142F0010293
:10491000C3F8402138BD00BF00380020C0B100609E
:1049200000ED00E0084B03EBC000B0F90430002BB1
:1049300008DB0122590903F01F0302FA03F3034ABB
:1049400042F82130704700BFC0B1006000E100E0D4
:104950000E4A01F07F0310B552F83000CC0900EB8D
:104960008301002CD1F8C02114BF4FF480340124FE
:1049700042EA0402C1F8C02114BF102200221A44E6
:1049800001239340C0F8B43110BD00BFC0B1006036
:104990000E4BCA0901F07F0153F83030002A03EBB7
:1049A000810114BF4FF480024022D1F8C03143EAA4
:1049B000020314BF6FF480326FF00102C1F8C031FE
:1049C000D1F8C0311340C1F8C0317047C0B10060A8
:1049D0002DE9F843344B81468D780E4603EBC00237
:1049E000984605F07F049279A24208D82F4B1868A8
:1049F00010F0010001D000BE0020BDE8F883ED09F1
:104A00002B4F4022002105EB440007EB8010FEF7FE
:104A100055F905EB4403610007EB8313DA7842F0A4
:104A20002002DA707079327900F0070042EA002241
:104A3000588862F30A005880F27802F00302012AD3
:104A400002BFD87862F38710D8704B19184807EB6B
:104A500083170123BB60BFF34F8F0023154AC11892
:104A60002033B3F5C06FC2F87012F8D1BFF34F8F87
:104A7000BFF36F8FF27824B258F8393002F0030296
:104A800003EB84039200D3F8C01142F0C00235B9A1
:104A9000090C09040A430120C3F8C021ADE789B21B
:104AA00041EA0242F7E700BFC0B10060F0ED00E06C
:104AB0000038002000ED00E0154B4FF0081CF0B569
:104AC00053F8304003EBC000124F002386790125D4
:104AD000591CCAB2964200D8F0BD07EBC112D0688B
:104AE00002F1080E40F04000D060D06C40F0400071
:104AF000D06403F1110205FA01F0713305FA02F2F4
:104B00000243C4F8B42144F823C00B46E0E700BFD9
:104B1000C0B1006000380020F8B50C4606460D4DC7
:104B2000114604F07F07E4091A4604F1200000EB67
:104B3000470005EB4010FFF707FE304604EB470344
:104B40002246394605EB831500232B63FFF7C2FD90
:104B50000120F8BD0038002038B500230C46802124
:104B600005461A466406FFF7D7FF044B44F08074ED
:104B700053F83530C3F8544138BD00BFC0B10060B0
:104B8000694BF7B553F830400546D4F84821D4F8BE
:104B900044611640C4F84461002E00F0C3807107E0
:104BA00059D5D4F84421520640F1B5804022C4F8CA
:104BB0004421D4F88421D70740F1A88003EBC00337
:104BC000D4F884714FF008109979C7F381670023F6
:104BD0000133DAB2914200F29480D4F87831C4F80B
:104BE00078310023C4F87C31D4F84431C4F844311E
:104BF000D4F8AC31C4F8AC31D4F8BC31C4F8BC3111
:104C0000D4F8B031002BFBD14FF0FF33C4F8B431EE
:104C1000D4F8B4110029FBD1444B4FF4C0621846BC
:104C2000FEF74CF80346B0F8421041485A8801405C
:104C30000240284641F4015142F40152A3F84210C7
:104C400059785A80012241F080019A64597039469E
:104C50009A6005F0F3FDF2050DD5D4F884311B06FA
:104C600009D5D4F8543113F0F05F04D001220421A7
:104C7000284605F0D3FDF70739D52C48BFF34F8FF1
:104C800000232C4AC1182033B3F5C06FC2F870124C
:104C9000F8D1BFF34F8FBFF36F8FD4F8BC71C4F856
:104CA000BC71D4F8AC3143B1D4F8AC310122224903
:104CB0002846C4F8AC3105F0D4FDC7B1002427FA6A
:104CC00004F3E1B2D80705D5002228460191FFF789
:104CD0007FFD019904F1100327FA03F3DA0703D5E6
:104CE00001222846FFF774FD0134082CE7D1330672
:104CF00018D501220321284603B0BDE8F04005F095
:104D00008DBD03F1700244F8220061E70122022107
:104D100005F084FD9FE7D4F8843119069BD4012265
:104D20000521F5E703B0F0BDC0B1006000380020F8
:104D300000D8FFFF00ED00E028380020474AF8B512
:104D4000546914F0007437D0936903F44053B3F5F9
:104D5000805F2DD0B3F5005F22D05BBBA2F510328F
:104D60001169C90316D5126912F4404F3C4A08BFB5
:104D700013463A4A5469C4F3C2640134B3FBF4F4F1
:104D8000364B384A5B69C3F382230133B4FBF3F338
:104D90001360F8BD1369344A13F0020F334BE6E792
:104DA000334B1B6B13F4404F2D4B18BF0023E0E730
:104DB0002B4BDEE70023DCE72D4B294E1A6812F45B
:104DC000803F1A682CD012F4404F18BF00261A6B8F
:104DD0001B6BD20329D513F4404F214D18BF00257A
:104DE000234F00231E49386D3A6EA0FB0101FDF7E9
:104DF0008DFC1A4A2844936903F44023B3F5002F2D
:104E000024D019D83BB3B3F5802FB9D1D7F80041DE
:104E1000C4F305441223B0FBF4F003FB00F4AFE746
:104E200002F07F0256437608D1E713F0010F0F48D6
:104E30000D4D18BF0546D3E7B3F5402FA0D1136938
:104E400003F007030133B6FBF3F499E7D7F8004109
:104E500004F03F04DEE7044692E700BF00C00F40C5
:104E600000366E016400002000389C1C00A4781FEE
:104E700000800D4070470000464A474970B5D2F89F
:104E8000883043F47003C2F888300B8923F00103A3
:104E90001B041B0C0B81414B1A8922F001021204E6
:104EA000120C1A810A88560705D50A8822F00402D6
:104EB0001204120C0A801A88550705D51A8822F0A8
:104EC00004021204120C1A80354B1A6894045BD544
:104ED000344A5A604FF6FF729A601A6822F0A002B4
:104EE00042F020021A60304B1A68D00703D51A68C6
:104EF00022F001021A60274B5A69910315D45A69AE
:104F000012F4003211D1BFF34F8FBFF36F8FC3F88C
:104F10005022BFF34F8FBFF36F8F5A6942F40032B4
:104F20005A61BFF34F8FBFF36F8F1A4B5A69D20389
:104F300027D45A6912F4803223D1C3F88420BFF3F6
:104F40004F8FD3F8802043F6E074C2F3C900C2F358
:104F50004E32520102EA0406014646EA81750139E1
:104F6000C3F86052F9D2203A12F1200FF2D1BFF308
:104F70004F8F5A6942F480325A61BFF34F8FBFF3AB
:104F80006F8FFFF777FF70BD4CF220525A604DF6DD
:104F900028129EE700ED00E000800B4000000D406D
:104FA00000C00B4020C528D910E000E0044BD3F826
:104FB0007032DB0602D4034B186870470248704712
:104FC00000800D40C09B002000366E0108B528B15E
:104FD0000D4BC1210D4A0E48FDF728FD0D4B4FF03A
:104FE0008042C3F85821D3F87022D103FBD54FF487
:104FF0008032C3F85421D3F850211204FBD54FF46A
:105000008032C3F8582108BDD0B1006051B20060B1
:10501000DFB1006000800D40044B102210B9C3F8CE
:1050200074227047C3F87822704700BF00800D409B
:10503000034AD2F8703243F00103C2F8703270476D
:1050400000800D40104AD2F8803043F00303C2F8CC
:10505000803002F5F212D2F8403143F00203C2F878
:1050600040310A4B00BF013BFCD1094A0120D2F874
:10507000203123F4F85323F0010343F4B85343F0F1
:105080000103C2F82031704700C00F40801A0600AB
:1050900000800D400F4B02791968920321F4E03132
:1050A00092B20A4342F480321A601968026821F40D
:1050B000415102F07F0221F03F010A4342F40052C5
:1050C0001A601A68002AFCDA1A6822F480321A6020
:1050D000704700BF00800D40184B027B196B920394
:1050E00021F4E03192B20A4342F480321A63196B20
:1050F000027821F4405102F0010221F001010A433B
:1051000042F400521A63426822F040421A658268F3
:1051100022F040421A66428AC189C2F30E0242EA74
:105120000142017CC90389B20A431A641A6B002A3E
:10513000FCDA1A6B22F480321A63704700800D404B
:105140000F4B42781969920321F4E03192B20A437D
:1051500042F480321A611969027821F441515200F7
:1051600021F0020102F002020A4342F441521A61A4
:105170001A69002AFCDA1A6922F480321A6170472F
:1051800000800D4008B50E4B1A69920414D51A69B7
:1051900042F040021A610B4B01201A6B22F00042D0
:1051A0001A631A6B22F080421A6300221A601A6B8B
:1051B00042F4C6121A6308BD0348FFF7C1FFEAE7CD
:1051C00000800D4000900D4088B20060014B00222D
:1051D0001A62704700800D40024B4FF480521A67EC
:1051E000704700BF00800D40024B4FF48052C3F85F
:1051F000E020704700800D40C0F30B41024600F0F4
:105200001F0001F1804101F5582108B50B68C3402A
:1052100013F001031AD00B6813F4404F18D1FFF7B5
:10522000C5FE0B6813F4803340F0F4807A498A425B
:105230005BD02FD8A1F5A0018A4200F0E88009D800
:105240000D2A42D0A1F580118A4245D0184608BDEA
:105250000020E6E771498A42F8D1714B07EE900AC7
:1052600093ED146AB8EE677B93ED185AB8EE466B6F
:105270001B6BB8EE455BDB0727EE067B4CBF1623A6
:105280001423584387EE056BFCEEC67B17EE903A6D
:105290000344DBE763498A4200F0B3800FD86249D8
:1052A0008A4266D001F580018A42CFD15C4BD3F8A7
:1052B000E03003F003035D4A52F82330C6E75C4850
:1052C0005C49824208BF0B46C0E7554B1B6803F0A0
:1052D0007F0358434308B9E7514B1B6913F0020F92
:1052E00014BF162314234343B0E74D4A07EE900A38
:1052F000136FB8EE677B92ED205A92ED246A03F0AB
:105300007F03B8EE455BB8EE466B27EE055B85EE96
:10531000067BBCEEC77B17EE101A00FB0313116F60
:1053200001F4C011B1F5002F16D0B1F5801F01D0E6
:10533000A1B99B08D2F870213F490A40B2F5000F8D
:1053400084D012D8002A81D0B2F5004F57D03B4B01
:1053500040F22B413A4A05E05B08EBE7374B40F25D
:105360001741374A3748FDF761FB8A42EFD19B0866
:105370006CE72B4A07EE900AD2F8A030B8EE677BB4
:1053800092ED2C5A92ED306A03F07F03B8EE455B44
:10539000B8EE466B27EE055B85EE067BBCEEC77B61
:1053A00017EE101A00FB0313D2F8A01001F4C0117D
:1053B000B1F5002F18D0B1F5801F01D0B1B99B080D
:1053C000D2F8702102F04042B2F1004F3FF43EAFFC
:1053D00011D8002A3FF43AAFB2F1804F0FD0174BEB
:1053E00040F26C41164ABDE75B08E9E7134B4FF406
:1053F0008B61134AB6E7B2F1404FB8D0EFE75B08D4
:1054000024E7074BD3F8E030C3F3810353E7044BA1
:105410001B6A63E7034619E70D0070000D003000BA
:1054200000800D401400E0000D00A00078B2006084
:105430001500E00040787D01008080004BB20060E4
:1054400067B20060DFB1006010B5C000094CBF2337
:1054500001F03F01D4F800218340814022EA030299
:105460008023834011431343C4F80031C4F8001172
:1054700010BD00BF00800D401F2908B505D9084B9D
:105480007121084A0848FDF7D1FA012303FA01F116
:1054900012B9C0F8881008BDC0F88410FBE700BF3F
:1054A0008AB20060B1B3006094B2006010B501240C
:1054B000C3690F2902F1FF3204FA01F488BF1039E1
:1054C00023EA0403C36194BF00F10C0300F110034D
:1054D000042A0BD8DFE802F0030B151D2400480056
:1054E00003211A68814022EA0101196010BD4C00B5
:1054F00003201A680121A04022EA0002A1401143C2
:10550000F3E74C0003201A680221A04022EA0002BF
:10551000F4E749000322186802FA01F10143E4E7C5
:10552000C3691C43C461E1E773B500231646044612
:10553000254A52F8040B844230D001330A2BF8D1AB
:10554000224B3921224A23483BE0234A02EB8002C6
:105550000320A84052E8003F034342E80035002DF5
:10556000F8D1012562698D4022EA0502EB436261B0
:1055700032784AB9626813406360B278204602B05C
:10558000BDE87040FFF792BF727820460191FFF7A7
:1055900073FF636801991D436560EEE7052BE0D852
:1055A0000E4A32F913305A1CDBD0B3F5006F4FEAC4
:1055B000132003F01F05C8D3094B40F2C241094A2A
:1055C0000948FDF733FA00BFC0B300606BB3006059
:1055D000A0B3006094B2006068C00F40E8B3006000
:1055E000F2B200608EB30060FFB20060B0F5006FF1
:1055F0004FEA102200F01F0310B506D30B4B40F208
:10560000C2410B4A0B48FDF711FA0B48994000EBD9
:10561000820003229A40D24350E8003F13400B43DC
:1056200040E80034002CF7D110BD00BFF2B200609A
:1056300040B50060FFB2006068C00F4008B5084A7E
:105640000346002052F8041B994208D00130092873
:10565000F8D1044B7B21044A0448FDF7E7F908BD63
:10566000B4B5006062B4006052B5006001B400607F
:105670002DE9F84F04460D4629B96E4BF2216E4ACA
:105680006E48FDF7D3F90B681BB96D4BF3216A4ADD
:10569000F6E7097A042903D96A4BF521664AEFE750
:1056A000697A042903D9684BF621634AE8E74FF089
:1056B0000A0E00264FEA830998460EFB02FA4FF0C5
:1056C000040C37465FFA8CFBBAFBF9F105319944BB
:1056D000B1FBFEF189B2012938BF01210CFB01F0B9
:1056E0000CF1010CB2FBF0F0834234BFC01A181A5F
:1056F00040459EBF80465E460F46BCF1210FE1D17A
:105700006422B3FBF2F303EB43034345C0F08E8006
:105710002046C7F30C07FFF791FF4C4B032133F9E9
:105720001000FFF763FFA368321F013E43F002033E
:10573000032A4FEA0666A360A36806F0F85623F032
:105740000203A360236998BF43F4003323F01F23AF
:1057500023F0FF031E433E432661236923F00053D9
:105760002361A269EB7B22F4E26229791B0222F019
:10577000070203F4E0630A431A43AB7B9B0003F088
:10578000040313436A79012A4BD1002946D023F43C
:105790000063A361EB7922695B0322F4005203F4F6
:1057A0000053134323616A7A2B7A43EA0243E3628C
:1057B000A36A43F08803A362A36A43F44043A3624D
:1057C0006B7B2A7B1B01616A520103F0100302F01C
:1057D000200213430B436362AB7A1BB1636A43F04D
:1057E00008036362EB7A1BB1636A43F001036362EF
:1057F000A979174B174A002918BF1A466369134342
:1058000063612A7CA3690AB143F400236A7C0AB16C
:1058100043F480230020A361BDE8F88F43F40063C4
:10582000B7E70029B5D043F01003B2E740F22150AA
:10583000F2E700BF87B4006065B5006001B40060A6
:1058400096B40060B0B40060F8B40060D8B50060F1
:1058500000C01FE000C01FC008B530B9084B40F2BF
:105860000621084A0848FDF7E1F800234FF4E13229
:1058700043820382C0E90023C0E9023308BD00BFB0
:1058800087B4006071B5006001B400604269836A4A
:1058900003481B0C03F0C30313431840704700BFB9
:1058A000C3C0FFC110B58B070C4C04EA010407D03C
:1058B000826A230422F4703203F440331343836278
:1058C000436903F0785323434361FFF7DFFF20422E
:1058D00040F21A5008BF002010BD00BF03C01FC017
:1058E00008B539B10A4491420BD143695B02FCD53A
:1058F000002008BD064B40F29631064A0648FDF7E7
:1059000095F843691B02FCD511F8013BC361EAE736
:10591000F4B3006089B5006001B400602DE9F04780
:10592000054631B9344B40F2D731344A3448FDF79B
:105930007DF8876938050ED407F01207BB1E5F4259
:105940005F410E4601EB020840F21A59464541D12B
:105950000020BDE8F0870127F3E72846FFF796FF10
:1059600010F4002F824609D04FF400212846FFF79B
:1059700099FF00283CD040F21A50EAE710F4803337
:1059800024D04FF480312846FFF78CFF00280CBF4D
:105990004FF4A46048461AF4003F0AD040F21F5466
:1059A0004FF400312846FFF77DFF00280CBF20464A
:1059B00048461AF4802F0BD04FF480212846FFF779
:1059C00071FF0028D7D140F21E50C2E71846E2E727
:1059D0000028BED1EB6A13F0E06FBED017B9EB69B7
:1059E000DBB202E0EB6903F07F0306F8013BADE7B1
:1059F00040F21D50ADE700BFF4B300609EB50060FB
:105A000001B4006008B5044A044B51681B6804489F
:105A10009847BFF34F8F08BDC89B0020EC9B002028
:105A20000040184008B5044A044B91681B680448BC
:105A30009847BFF34F8F08BDC89B0020EC9B002008
:105A40000080184008B5044A044BD1681B6804481C
:105A50009847BFF34F8F08BDC89B0020EC9B0020E8
:105A600000C0184008B5044A044B11691B6804487B
:105A70009847BFF34F8F08BDC89B0020EC9B0020C8
:105A80000000194008B5044A044B51691B680448DA
:105A90009847BFF34F8F08BDC89B0020EC9B0020A8
:105AA0000040194008B5044A044B91691B6804483A
:105AB0009847BFF34F8F08BDC89B0020EC9B002088
:105AC0000080194008B5044A044BD1691B6804489A
:105AD0009847BFF34F8F08BDC89B0020EC9B002068
:105AE00000C0194008B5044A044B116A1B680448F9
:105AF0009847BFF34F8F08BDC89B0020EC9B002048
:105B000000001A400020FFF73BB8704780F0010208
:105B100003210148FFF7B0BC00C01B40F0B589B0BD
:105B200002F072FE434A52E8003F43F00C0342E8A1
:105B30000036002EF7D1404B202241F2B005052758
:105B400083F84123012483F8712303213B4B01AAED
:105B50003B481F60C3F8F051ADF804408DF8066073
:105B6000FFF7E2FC2046FFF7D1FF364B364A2146CD
:105B70001F60C3F8F021032302AA31488DF80A30D0
:105B8000ADF80860FFF7D0FC304A022303A8136089
:105B90000432C2F88C4413602D4B1C60A3F52773AC
:105BA0002C4C1D605D60FFF757FE4FF4E13303930B
:105BB00040F20113ADF81C30236813F0400F234668
:105BC00028D12548FFF718FB06222368B0FBF2F026
:105BD00003F03F020132B0FBF2F203A91F48FFF7C6
:105BE00047FD1F490020FFF7CDFA1D490020FFF7B0
:105BF00029FA1C4B1C491A6B42F440421A630022DA
:105C00001A601A6922F00F1222F4706211431961AE
:105C100009B0F0BD154AD2F87022D20608D4144A51
:105C20001268186800F03F000130B2FBF0F2D4E7D0
:105C3000104AF6E778C00F4000E100E048811F40BD
:105C400000C01B4040811F40A0B00100C4801F4025
:105C500050851F4024C00F400D00100000801940E7
:105C600000389C1C00900D400C06060000800D4082
:105C7000C09B002000366E0110B50C460A46014656
:105C80000248FFF74BFE204610BD00BF00801940C0
:105C900010B50C460A4601460248FFF721FE204691
:105CA00010BD00BF0080194008461146FFF7F0BF45
:105CB00008461146FFF7E0BF0C4608B54FF0200339
:105CC00072B683F31188BFF36F8FBFF34F8F62B645
:105CD00061B106210848FFF7DBFF08212046FFF7E6
:105CE000D7FF02210548FFF7D3FFFEE70F21044845
:105CF000FFF7CEFFF9E700BFEAB50060F1B500603D
:105D0000F4B50060034B0360034B0B60802313600A
:105D1000704700BF00420020003E0020034B03609C
:105D2000034B0B6080231360704700BF5442002078
:105D30000040002008B54FF0200372B683F31188AD
:105D4000BFF36F8FBFF34F8F62B6FFF7A1FF02F073
:105D500087F8FEE7C900044BBFF35B8F41F00301F6
:105D600023F81010704700BFA84200202DE9F74328
:105D70000025344FA9462C462E46B8463A88BFF334
:105D80005B8F510793B222D04FF00001ADF8043081
:105D9000BDF80400BFF35B8FD8E85F2F824203D1C8
:105DA000C8E85C1FBCF1000FBFF35B8F18BFADF8F4
:105DB00004209DF804205207EAD103F007024A4567
:105DC0002BD1B9F1030F11D0B9F1050F1AD0B9F1E8
:105DD000030F0FD0B9F1050F15D005F00101002018
:105DE00002F026F8082003F0D1FDC7E7DE08B44230
:105DF000A8BF3446072C8DBF083C85F0010534460A
:105E0000A4B2EAE7DC08072C87BF083C012500257F
:105E10004FF0010988BFA4B2DFE7511E042905D85D
:105E2000DFE801F00306080B0E0000259146CEE7DF
:105E30000125FBE7DE083446F8E785F00105F5E7C4
:105E4000DC08F3E7A84200200048704727B800604C
:105E50000048704782B600600048704761B6006035
:105E60000528F0B59BB037D81C4B53F820505DB1D6
:105E70001B4C60B91B4B01201B8863800130184DFF
:105E8000400040F44070208028461BB0F0BD164B07
:105E90000AAF164E032818BF1E464FF03033CDE927
:105EA000023302F057FC124A0346182104A801F0FD
:105EB00045FA02AB2A463F21184433460090384643
:105EC00001F03CFA0023834201DBC0B2D6E7FA5C62
:105ED000013324F81320F6E70025D5E73CB800602D
:105EE000AA4200205FB6006004B60060F3B500600F
:105EF0000FB60060704700004FF48472842138B5FB
:105F000042430E4DAC1894F8043101FB003002EB13
:105F1000831294F8061180302A4441F0800135F84C
:105F2000103041F2C820285CFEF7F6FD94F80431E9
:105F3000B3FA83F35B0984F8043138BDFC730020A5
:105F40000E494FF48472034602FB001230B492F8FB
:105F50000441842200255343002C14BF1A465A1CC6
:105F600023448032803321F8125031F8133013B1BA
:105F700030BCFFF7C1BF30BC704700BFFC730020CE
:105F800008B504F0FBFCFCE741F668021049002369
:105F9000424330B58C1841F6640501F5C351635591
:105FA00041F65A05635341F65C056353515ABFF3FA
:105FB0005B8F084C89B21153211D535440F65C018C
:105FC000054A01FB0020A0F8643AA0F8663A30BD0B
:105FD0002C4300208A5B0020FC73002038B5104A57
:105FE0004FF4847341F66805044603FB0023002246
:105FF000A3F80021A3F802210A4B05FB003541F666
:106000006303EA5401F030FF41F65803E85220469A
:10601000FFF7BAFF2046BDE8384001F02FBF00BFB0
:10602000FC7300202C430020002008B5FFF7D6FFAA
:106030000120BDE80840FFF7D1BF000070B5184E41
:10604000044635464FF0FF31D6F8600A03F062F996
:106050000128F7D1134E4FF0FF31306803F05AF9A1
:106060000128F8D141F2C8234FF47A710020EC5492
:106070000024FFF76FFE41F2C923EC54FFF7D4FF71
:10608000234622462146D5F8600A02F0F3FF234654
:10609000224621463068BDE8704002F0EBBF00BFE9
:1060A000FC730020B886002040F65C02F8B542433D
:1060B000214C40F22E43A61802F50472434396F891
:1060C000681A5D1804EB4505B5F8645AB5F5007F0C
:1060D00010D215F03F070DD102EB412129440F5199
:1060E00096F8681A0B4403F5A66304EB43039988FA
:1060F0000431998040F65C0540F22E4105FB0045D5
:1061000095F8683A01FB003002EB432295F86A1AD1
:1061100004EB4000224441F08001B0F8643A41F2BF
:10612000C820205CFEF7F8FC95F8683AB3FA83F3D0
:106130005B0985F8683AF8BDFC730020F7B5214D7E
:1061400040F65C06044606FB00564FF0FF31D6F8D9
:10615000600A03F0DFF80128F7D140F22E4396F8E9
:10616000681A00206343002914BF1A465A1C0B44C6
:1061700002F5A66205EB430305EB42029080B3F8FB
:10618000643A13B12046FFF78FFF0F4B41F66800CA
:10619000002641F6540700FB0430022300963246E5
:1061A0003146C05903F00CFE40F65C0033463246DF
:1061B00000FB04543146D4F8600A03B0BDE8F04057
:1061C00002F058BFFC7300202C4300202DE9F04161
:1061D00041F2C823264E0546F35C834243D1242A6C
:1061E00041D94B79FF2B3ED18F78012F3BD801F15C
:1061F000090801F1250441462846FEF7E9FB18B9D4
:1062000071211C48FFF796FD08F10708A045F2D15F
:106210004FF4847228467A43B11891F8053191F809
:106220000611023302EB831240233244FEF774FC62
:1062300040F65C02044628467A43B11891F8693A60
:1062400091F86A1A02EB43224FF4007302F5C2621E
:106250003244FEF761FC14B975210748D2E728B92A
:1062600075210648CEE70020BDE8F0812520FBE738
:10627000FC73002054B80060C6B800603CB90060F0
:106280002DE9F04FC4B28BB0012C03D985218F4882
:10629000FFF750FD40F65C038D4A00258D4E6343A9
:1062A000AB460495099341F66803634303F5C35174
:1062B00002311144069103F5C35103F5C253114451
:1062C0001E3307911344CDE90255089300214FF086
:1062D000FF32084603F032FD90B340F65C0707FB3F
:1062E00004674FF0FF31D7F8600A03F013F8012874
:1062F000F7D1794B1B7843B1754A41F6680303FB2C
:10630000042341F663029F5CF7B903F057FA0022B9
:106310004FF0000B4FF001080121104603F00EFD75
:10632000CDE902BB40F65C00002300FB04601A4686
:106330001946D0F8600A02F09DFEB8F1000FC5D0F2
:10634000012003F023FBC1E740F65C034FF0000897
:1063500003FB0463019303F031FA002D40F09680B3
:10636000049BC51A7F2D94BF00250125019B93F83E
:10637000689A099B03F5047202EB4922324402F544
:106380000073059340F22E43634303EB090E0EF5B1
:10639000A66E06EB4E0EBEF804C002EB0C01002DFB
:1063A00000F08480CCF500750F2D71D90CF110032D
:1063B00041F6680501F11009AEF8043041F65A0EB5
:1063C000434B05FB043333F80E500095002523F8AA
:1063D0000E5041F65C0E33F80EA023F80E504FF02D
:1063E000200E02F80CE01022CD734A70029A8D73D1
:1063F000CA70009AA1F808A04A812A46039D81F834
:106400000CB04D73069DBFF35B8FAC46DCE84F5F6D
:10641000CCE84E2FBEF1000FF8D1BFF35B8FEAB28C
:106420008D7041F664055B5D13B142F001028A7024
:106430002A4B5B6A04904B6049464FF000094D4679
:10644000079B41F66800224A41F65E0C1B88BFF3A9
:106450005B8F00FB04209BB230F80C009842009048
:1064600000F08F8040F20D339DF800C003FB04FE66
:106470005EFA80FE02EBCE021279042A7BD8DFE8B6
:1064800012F01B002F00CB00D700E10001256DE7C3
:10649000B9F1000F08BF013306EB4303B3F8643AC8
:1064A00033B920463D46FFF7FFFD54E7B946C7E73D
:1064B000B946B8463D46C3E703FB04C3044A02EBB2
:1064C000C3035B79DBB202933D4652E0B2B9006090
:1064D0002C430020FC730020C586002000001F40D4
:1064E000684A03FB04C302EBC30E10469EF8052066
:1064F000019A92F868AA059A521A072A40F22E4287
:106500007AD902FB04A202F5A66206EB4202B2F8B7
:10651000049009F10809A2F804904FF024090A46F2
:1065200002F8089B4FF0080981F801909EF8059049
:1065300050F83330C9F385094B60002381F802908D
:10654000CB709EF80530DB0744BF0123CB7040F2CF
:106550000D3303FB04CC4B4B03EBCC0C9CF8053008
:106560009807C3F340097ED5CB7843F00203CB7084
:1065700011464FF000090098BFF35B8F089B013074
:106580001880059A204601F0E7FF431C10D0019BBC
:1065900093F8682A40F22E43002868D16343002A0A
:1065A00008BF013306EB4303B3F8643A83B3B8463C
:1065B000B9F1000F3FF4CFAE40F65C0303FB046378
:1065C00093F8681A40F22E436343002914BF1A4619
:1065D0005A1C06EB4202B2F8642A42B90B4406EB9D
:1065E0004303B3F8643A13B12046FFF75DFD03F0AF
:1065F000E5F803F0E3F895E66243BAF1000F14BF43
:10660000924602F1010A06EB4A0ABAF8643A63BB01
:106610002046FFF749FD9EE61A4A03FB04C302EB3E
:10662000C3039A795B795FFA82FBDBB203934BE792
:1066300041F66802134B012502FB043341F6640264
:106640009D5441E70F4D03FB04C305EBC3035A7987
:1066500041F6680303FB045341F65C0533F805C0BB
:1066600062445A5330E7114685E7B84683E703FB97
:10667000042303F5A66306EB43039A88104498802D
:1066800069E600BF2C4300204FF484732DE9F041EC
:10669000164C03FB00F705460E4604EB070884235F
:1066A00098F804216B439918803134F81100C0F137
:1066B000400CBCF1030F0DDD07EB821303440430E3
:1066C00024F811001F211A1919550423D67053708C
:1066D000BDE8F081002A08BF0133803334F813305D
:1066E000002BF5D12846FFF707FCD8E7FC73002004
:1066F0002DE9F04F4FF48477CB4D044689B04743E2
:106700004023DFF83493E81990F80521961CB2FA7B
:1067100082F207EB861652092E4480F805210232D8
:1067200006EB010890F8061107EB821241F2C8202F
:106730002A44285CFEF7F0F940F65C0363430293B9
:10674000B31C984519D24FF4847303FB045393F898
:106750000411842363435A18803235F812204AB159
:10676000002908BF0133803335F8133013B92046B0
:10677000FFF7C2FB09B0BDE8F08F737806EB030AA0
:10678000C245E0D8002BDED03278132A00F22481F3
:10679000132A00F22481DFE812F05502D900220109
:1067A0007E00140022012201220122012201220185
:1067B000220122012201220122015101890122012B
:1067C000C0014FF484734FF0840B03FB04530BFBA5
:1067D00004FB93F804610BEB0602803235F81220BB
:1067E000C2F140011B2940F30E812046039201F0C3
:1067F00071FC8346204607EB861601F073FC4FF4CC
:106800008471039A002808BF584601FB04513244A2
:1068100091F804618421AB1801FB0461803135F8E3
:1068200011601C3625F8116004216FF04B06A95445
:106830001C225E716FF03B065A7000229E711A7125
:10684000D971BBF800105973BBF8061019819BF879
:106850000B109973BBF802101973BBF8081059811B
:106860009BF80410D9739BF80A1019740188997465
:10687000C1885974C17A59754188D97401891975CB
:1068800001799975817A9A700222D9752021DA707E
:10689000197659769EE04FF48476842206FB0456DE
:1068A000624396F804B106F5827102EB0B03803364
:1068B00035F81330C3F140003B2840F3928007EBDA
:1068C0008B1BCDE904129B4401F044FF0499059A07
:1068D00005EB0B060978039020460A44803235F810
:1068E00012103C3125F81210032205F80B203C222F
:1068F000727001F0B9FA7080204601F0B7FA0022F8
:10690000B08006F11C0132760522039B72760622C6
:10691000B2761722F276454A02F1140052F804CBFF
:10692000824241F804CBF9D11088927808808A70AD
:1069300004F13002F37286F832201A0E32721A0C09
:1069400072721A0A0423B272F37143E040F65C06D5
:1069500006FB04564FF0FF31D6F8600A02F0DAFC6D
:106960000128F7D12046C246FFF738FB0023D6F8AE
:10697000600A1A46194602F07DFB96F8681A029AD8
:1069800040F22E432A4803FB041302F504720078F8
:1069900002EB412296F86A1A05EB43032A4441F0C0
:1069A0008001B3F8643AFEF7B7F84FF48473842299
:1069B000082103FB045393F8043102FB043207EB74
:1069C0008313803225F81210EA181A49E9504FF45F
:1069D000804393805646B3E61E2A00F0D4800421FB
:1069E000CBE0BBF1000F14BF934602F1010B039201
:1069F0000BF1800B35F81B30002BEBD12046FFF755
:106A00007BFA039A4DE7002E14BF5E460BF1010698
:106A10000393803635F81620002ADBD12046FFF795
:106A20006BFA039BD5E600BFFC730020B8BA006088
:106A3000C4860020020801002C430020072B40F2EE
:106A4000FF80204601F046FBB388C28806A9934226
:106A500028BF13460288934238BF1346ADF818305A
:106A6000B378C27A934228BF13464279934238BF23
:106A700013468DF81D30F3880289934228BF1346D0
:106A80004288934238BF1346ADF81A30F378827AC1
:106A9000934228BF134602792046934238BF1346DB
:106AA0008DF81C3001F022FB002166E0072B40F23C
:106AB000C780204601F016FBB388C28806A993421E
:106AC00028BF13460288934238BF1346ADF81830EA
:106AD000B378C27A934228BF13464279934238BFB3
:106AE00013468DF81D30F3880289934228BF134660
:106AF0004288934238BF1346ADF81A30F378827A51
:106B0000934228BF134602792046934238BF13466A
:106B10008DF81C3001F072FBC6E7072B40F2908025
:106B2000204601F0A1F98346204601F09FF9F17853
:106B3000D9B10129B8D10390766806F4E060FBF77B
:106B4000FDFD01281DDC039B4BEA030081B236EA00
:106B500001017FF444AF41F6680341F6580203FB9C
:106B60000493985A06439E5207E041F6680341F6A3
:106B7000580203FB049323F802B02046FFF784FD7C
:106B800028E70221F9E7032B5AD9738841F66802F6
:106B900041F66301B3F1000B02FB049218BF4FF002
:106BA000010B525C5A453FF47FAF40F65C0202FB9A
:106BB0000452D2F8600A4FF0FF310493039202F0BE
:106BC000A9FB01280646DDE90323F2D183B3204661
:106BD000FFF7DAF941F6680341F65802204603FB55
:106BE0000493995A01F0BCFD3146204601F04AFB5E
:106BF00041F6680641F6630340F65C0006FB049626
:106C000000FB045006F803B00023D0F8600A4FF0F0
:106C1000000B1A46194602F02DFA41F65400CDF841
:106C200000B002235A465946305803F0C9F83BE7F2
:106C30002046194601F026FB2046FFF7A5F9D7E7C5
:106C400001219AE746467BE52DE9F74F40F65C07C0
:106C5000684C05468A46474341F2C8204FF400730A
:106C600004EB070807F50477205C98F8692A961C5E
:106C7000B2FA82F2520907EB462688F8692A0232F4
:106C8000264407EB422206EB010998F86A1A2244CF
:106C9000FDF742FFBAF1000F00F0A8804FF0FF317E
:106CA000D8F8600A02F036FB0128F7D1524B41F6C2
:106CB000680A0AFB053A41F663031AF80330EBB1A0
:106CC000B31C994528D240F65C0303FB054393F8B7
:106CD000681A40F22E436B43002914BF1A465A1C0F
:106CE00004EB4202B2F8642A42B90B4404EB4303BA
:106CF000B3F8643A13B12846FFF7D6F940F65C00C2
:106D0000002300FB05451A461946D5F8600A03B072
:106D1000BDE8F04F02F0AEB9737806EB0308C84542
:106D2000D1D83278002ACED0002BCCD0222A45D11F
:106D3000082B43D9F278920707D4B2782F4902F092
:106D40000F028A5C0932934238D33146284601F05B
:106D500047FB98BB41F65A0240F22E4B3AF80230FC
:106D60000BFB05FB01332AF8023040F65C0202FB04
:106D7000054292F8683A0BEB030101F5A66104EBBA
:106D800041018888C0F5007CBCF1070F18D900F1DB
:106D9000080207EB43238A800344232204EB030CFD
:106DA000E25408238CF80130337A8CF80330202326
:106DB0008CF80230124B5B6ACCF8043046467FE711
:106DC000002B14BF5B460BF10103019204EB43035C
:106DD000B3F8643A23B92846FFF766F9019AC8E781
:106DE00041F6640301220AF80320E7E703B0BDE897
:106DF000F08F00BFFC7300202C430020D0BA00604D
:106E000000001F400A46194641F2C82310B51B4C2A
:106E1000E35C834202D1042A09D80AB9002017E0B2
:106E2000901E022810D8DFE800F01C14200002F1A8
:106E30007F03DBB2032BF1D8A2F181000328EDD848
:106E4000DFE800F009150D190020FFF751FC0120C3
:106E500010BD0120F9E70020FFF772F8F7E70120E5
:106E6000FAE70020FFF7F0FEF1E70120FAE7002043
:106E7000FFF764F9EBE70120FAE700BFFC7300209D
:106E800041F6680370B54343164DEA1802F5C35244
:106E90001688154A9C5ABFF35B8F341BA4B2FF2C93
:106EA00010D840F20D34604350FA86F2013603C91F
:106EB00005EBC20205F5C35582E80300BFF35B8F03
:106EC0005E5370BD094ABFF35B8F1344D3E84F2F65
:106ED00042F00202C3E8412F0029F7D1BFF35B8FD4
:106EE000EFE700BF2C4300208A5B00208E5B002070
:106EF0002DE9F04385B00E2601F028F82F4C03F061
:106F000037FB2F4B4FF480622E49029301252E4B05
:106F10002E4801930023009602F030FB2C4B802278
:106F20002C4902932C4B2D482D4FDFF8C080A7F53C
:106F3000C059CDE90063002302F020FB02230422A4
:106F400004F5216184F86A3A0323284684F806513F
:106F500084F80E3241F2C623E25402F00DF9A7F58F
:106F600080534FF48062C4F8600A40460297CDE92E
:106F700000630023194602F001FB1A497865284690
:106F800002F0FAF841F2BC234FF480620021E05095
:106F90004046154B0293A3F58053CDE900632B4681
:106FA00002F0ECFA43F2BC0349F80300FFF73CF8A7
:106FB00001F08EF802F0BCFB00F028FFFC7300200B
:106FC000C896002038BA0060C8860020815F006043
:106FD000F09D00203DBA0060F09B00206D5D0060D8
:106FE0002C5B002068860020947300208162006082
:106FF00070B5144C26464FF0FF31D4F8600A02F009
:1070000089F90128F7D1104D4FF0FF31286802F0BF
:1070100081F901280446F7D1FA210020FEF79AFEF3
:1070200041F2C923D6F8600AF45400231A461946DF
:1070300002F020F8002328681A461946BDE870407F
:1070400002F018B8FC730020B886002070B5164C0A
:1070500026464FF0FF31D4F8600A02F05BF90128B0
:10706000F7D1124D4FF0FF31286802F053F9012893
:10707000F8D14FF47A7100200024FEF76BFE41F244
:10708000C923F454FEF7D0FF234622462146D6F802
:10709000600A01F0EFFF2346224621462868BDE83A
:1070A000704001F0E7BF00BFFC730020B8860020ED
:1070B00070B5164C26464FF0FF31D4F8600A02F046
:1070C00029F90128F7D1124D4FF0FF31286802F05D
:1070D00021F90128F8D1002441F2C9234FF4FA71B3
:1070E0002046F454FEF736FEFEF79EFF2346224666
:1070F0002146D6F8600A01F0BDFF2346224621460C
:107100002868BDE8704001F0B5BF00BFFC730020E7
:10711000B886002070B5144C25464FF0FF31D4F8E6
:10712000600A02F0F7F80128F7D1104C4FF0FF3158
:10713000206802F0EFF80128F8D141F2C923FA21C2
:10714000E8540020FEF706FE0023D5F8600A1A4630
:10715000194601F08FFF002320681A461946BDE842
:10716000704001F087BF00BFFC730020B88600208C
:107170000B46114641F2C82210B40F4CA25C824269
:1071800003D123B1581E01280DD900200FE04A7801
:10719000012A0FD18A88072A0CD1084A5DF8044BCE
:1071A000138903F01DBF4878431E584258415DF8CB
:1071B000044B70471846FAE7FC730020D5B6006010
:1071C00008B518B976210348FEF7B4FD0123037012
:1071D000014808BD41BA0060E0BA006041F66803AA
:1071E000F7B50C4600250A4F03FB00F6A54201D176
:1071F00003B0F0BD002241F6540CB81902230092EE
:10720000114650F80C00013502F0DAFDEEE700BF40
:107210002C43002073B500250E460195D1B902B06C
:1072200070BD00220135114602F038FE731E206841
:10723000AB42F6D801AA002102F030FE019B002BE0
:10724000EDD0094B4FF080521A60BFF34F8FBFF360
:107250006F8FE4E7054C41F6680303FB004000F53F
:10726000C2541434E2E700BF04ED00E02C430020D8
:107270002DE9F74F019206460C9A8846D1F8009006
:10728000102ADDE90E4534D12A482B49002B0CBFCA
:1072900082468A46019B99452ED2002320462946E4
:1072A0000C92FBF733FA0C9A0D464FF0010B02FBE0
:1072B00010441AF80430044606F8093009F10103B5
:1072C000C8F80030D8F80070019B9F4202D254EAFF
:1072D000050314D1BBF1010F08D906EB09033E44A5
:1072E000A7EB0907A6EB5707BE421CD103B0BDE8C8
:1072F000F08FDFF840A0CDE74FF0000BE2E700236E
:10730000204629460C92FBF701FA0C9A0BF1010B6F
:107310000D4602FB10441AF804300446F3550137B9
:10732000C8F80070CEE71A7816F8011D03F8011BA3
:107330003270D9E708BB0060F8BA00600CB42DE9E0
:10734000F04786B00546DDF8389011B94FF0FF30B0
:107350002AE000270FAB01F1FF3AB8463E460497FA
:1073600005934FF0FF3219E019F8013BCBB1252B03
:107370000AD0A3F13001C9B2501C0428E6D8DFE8D6
:1073800000F00A18212E3300002A40F01581621CFB
:107390002B550492E5E7611C2B550491049C544540
:1073A000E2D3002320462B5506B0BDE8F04702B0DB
:1073B00070472B2B00F0058107D8202BEED0232B14
:1073C00000F002812A2B04D1C0E72D2BE6D0302B10
:1073D000E4D001220929E1D9013252B2CCE72A2BAB
:1073E000B4D0092940F2F480A3F15802222AADD882
:1073F00001A151F822F000BF2B7500604D730060B1
:107400004D7300604D7300604D7300604D730060FC
:107410004D7300604D7300604D7300604D730060EC
:107420004D73006095740060C37400604D7300601C
:107430004D7300604D7300608B740060C374006016
:10744000CD7500604D730060917400604D730060F5
:107450004D7300604D7300608F7500604D73006068
:107460004D7300609F740060857400602B75006030
:107470004D7300604D7300602B7500604D730060AC
:10748000857400600026032288E7013EF6B2FAE721
:107490000136FBE7059B1A1D1B68059277E7059BE4
:1074A0001A1D1B680592049A5245BFF45AAF197809
:1074B00000293FF456AF511C049113F8011BA95445
:1074C000F1E7022E059B17D1073323F0070303F1E1
:1074D0000802D3E900010592B8F1000F1ED0002880
:1074E00004F1010371F1000204930ADA2D234042F2
:1074F0002B5561EB410106E01A1D05921868C11772
:10750000EAE72B232B550A2300930023CDE9020140
:10751000524604A92846FFF7ABFE22E7002871F186
:107520000003F0DA631C0493E0E7752B09D1B8F18E
:10753000000F25D0631C04932B232B5500230A2115
:107540000FE04FB1A21C291952453FF62AAF302057
:107550000492782228554A70A3F158021021534210
:107560005341022E059A0DD1073222F0070202F193
:1075700008000590D2E90002CDE902020091C7E7B8
:107580004346DCE7101D059010680022F4E7631CF9
:107590003022534504932A55BFF4E3AE78220234D7
:1075A000EA54059B04941A1D05921A680023CDE93C
:1075B000022310220092ABE70027B8463E463A4627
:1075C000ECE64FF00108E9E60127E7E602265AE774
:1075D0000322FFE6084B41F24C4202FB003041F22D
:1075E000304281580B6843F0A0430B608258136807
:1075F000DB01FCD5704700BF6800002041F24C431E
:107600001249584300230A1801F5A25110B541F25E
:1076100045440144135541F24444135541F2474453
:10762000135541F24644135541F24944135541F272
:107630004844135541F2414413554B8041F23841BF
:107640005350034A1044436010BD00BF680000203F
:10765000A01400201FB502F049FE0423C0B202A905
:107660008DF80C3000238DF80D30064B5B6A0190CD
:107670000293FFF705FC01210198FFF7AFFD05B06C
:107680005DF804FB00001F409200002310B59342F8
:1076900000D110BDCC5824BAC4500433F7E7000021
:1076A00000F01F02084B000A914003EB8000032307
:1076B0009340DA4310B550E8003F13400B4340E8D5
:1076C0000034002CF7D110BD68C00F400021FFF737
:1076D000E7BF000038B5C3B2C0F30425820EC0F383
:1076E0004C3003F18043A940A840202A03F57C23B5
:1076F0001C6881EA040100EA010080EA04001860C5
:1077000006D9074B4FF49461064A0748FBF78EF9F8
:1077100005D00123054993408A6C1A42FCD138BD3B
:1077200018BB006032BD0060FFB2006000C00F40B7
:1077300038B5C3B2C0F30425820EC0F34C3003F158
:107740008043A940A840202A03F57C231C6881EAD5
:10775000040100EA010080EA0400186006D9074B22
:1077600040F27A41064A0748FBF760F905D0012349
:10777000054993408A6C1A42FCD138BD18BB0060A1
:1077800025BD0060FFB2006000C00F402DE9F74F3B
:1077900041F24C47694C41F230430546474341F2C0
:1077A00047468946E01950F80380D8F88030865D56
:1077B000C3F303616248F6B210F807A00429BFF3CF
:1077C0005B8F5FFA8AFA06D123F07063082143F0D9
:1077D0000063C8F8803041F24C4041F2434C6843AA
:1077E00004EB000E1EF80CC0BCF1000F71D008298C
:1077F0002ED141F24841DFF858B11EF801C01BF804
:1078000007B0BFF35B8F5FFA8CF1ACEB0B0C5FFA48
:107810008CFCBCF1200F03D9A0214A48FEF78AFA5C
:1078200019D10323694628468DF80430FFF728FB59
:10783000D9F8003041F243420021564503F10103DB
:10784000C9F8003041F24C4303FB0543995444D13D
:1078500003B0BDE8F08F01F01F0C41F23F4B002B4D
:107860000CF5187C1EF80BE000EBCC0004EB000BD1
:107870008BF804E02250C3F3405216DA980054BF4C
:1078800042F0040242F01402580001D542F008020E
:1078900041F24C4301316B4303EBCC0323445A7157
:1078A000BFF35B8F284BD955C2E7DB0248BF42F0DC
